{
  "_format": "hh-sol-artifact-1",
  "contractName": "Subscription",
  "sourceName": "contracts/Subscription.sol",
  "abi": [
    {
      "anonymous": false,
      "inputs": [
        {
          "indexed": true,
          "internalType": "address",
          "name": "from",
          "type": "address"
        },
        {
          "indexed": true,
          "internalType": "address",
          "name": "to",
          "type": "address"
        },
        {
          "indexed": false,
          "internalType": "address",
          "name": "tokenAddress",
          "type": "address"
        },
        {
          "indexed": false,
          "internalType": "uint256",
          "name": "tokenAmount",
          "type": "uint256"
        },
        {
          "indexed": false,
          "internalType": "uint256",
          "name": "periodSeconds",
          "type": "uint256"
        },
        {
          "indexed": false,
          "internalType": "uint256",
          "name": "nonce",
          "type": "uint256"
        }
      ],
      "name": "CancelSubscription",
      "type": "event"
    },
    {
      "anonymous": false,
      "inputs": [],
      "name": "EIP712DomainChanged",
      "type": "event"
    },
    {
      "anonymous": false,
      "inputs": [
        {
          "indexed": true,
          "internalType": "address",
          "name": "from",
          "type": "address"
        },
        {
          "indexed": true,
          "internalType": "address",
          "name": "to",
          "type": "address"
        },
        {
          "indexed": false,
          "internalType": "address",
          "name": "tokenAddress",
          "type": "address"
        },
        {
          "indexed": false,
          "internalType": "uint256",
          "name": "tokenAmount",
          "type": "uint256"
        },
        {
          "indexed": false,
          "internalType": "uint256",
          "name": "periodSeconds",
          "type": "uint256"
        },
        {
          "indexed": false,
          "internalType": "uint256",
          "name": "nonce",
          "type": "uint256"
        }
      ],
      "name": "ExecuteSubscription",
      "type": "event"
    },
    {
      "anonymous": false,
      "inputs": [
        {
          "indexed": false,
          "internalType": "uint8",
          "name": "version",
          "type": "uint8"
        }
      ],
      "name": "Initialized",
      "type": "event"
    },
    {
      "anonymous": false,
      "inputs": [
        {
          "indexed": true,
          "internalType": "address",
          "name": "previousOwner",
          "type": "address"
        },
        {
          "indexed": true,
          "internalType": "address",
          "name": "newOwner",
          "type": "address"
        }
      ],
      "name": "OwnershipTransferred",
      "type": "event"
    },
    {
      "inputs": [
        {
          "internalType": "address",
          "name": "from",
          "type": "address"
        },
        {
          "internalType": "address",
          "name": "toAddress",
          "type": "address"
        },
        {
          "internalType": "address",
          "name": "tokenAddress",
          "type": "address"
        },
        {
          "internalType": "uint256",
          "name": "tokenAmount",
          "type": "uint256"
        },
        {
          "internalType": "uint256",
          "name": "periodSeconds",
          "type": "uint256"
        },
        {
          "internalType": "uint256",
          "name": "nonce",
          "type": "uint256"
        },
        {
          "internalType": "bytes",
          "name": "signature",
          "type": "bytes"
        }
      ],
      "name": "cancelSubscription",
      "outputs": [
        {
          "internalType": "bytes32",
          "name": "resHash",
          "type": "bytes32"
        }
      ],
      "stateMutability": "nonpayable",
      "type": "function"
    },
    {
      "inputs": [],
      "name": "eip712Domain",
      "outputs": [
        {
          "internalType": "bytes1",
          "name": "fields",
          "type": "bytes1"
        },
        {
          "internalType": "string",
          "name": "name",
          "type": "string"
        },
        {
          "internalType": "string",
          "name": "version",
          "type": "string"
        },
        {
          "internalType": "uint256",
          "name": "chainId",
          "type": "uint256"
        },
        {
          "internalType": "address",
          "name": "verifyingContract",
          "type": "address"
        },
        {
          "internalType": "bytes32",
          "name": "salt",
          "type": "bytes32"
        },
        {
          "internalType": "uint256[]",
          "name": "extensions",
          "type": "uint256[]"
        }
      ],
      "stateMutability": "view",
      "type": "function"
    },
    {
      "inputs": [
        {
          "internalType": "address",
          "name": "from",
          "type": "address"
        },
        {
          "internalType": "address",
          "name": "toAddress",
          "type": "address"
        },
        {
          "internalType": "address",
          "name": "tokenAddress",
          "type": "address"
        },
        {
          "internalType": "uint256",
          "name": "tokenAmount",
          "type": "uint256"
        },
        {
          "internalType": "uint256",
          "name": "periodSeconds",
          "type": "uint256"
        },
        {
          "internalType": "uint256",
          "name": "nonce",
          "type": "uint256"
        },
        {
          "internalType": "bytes",
          "name": "signature",
          "type": "bytes"
        }
      ],
      "name": "executeSubscription",
      "outputs": [
        {
          "internalType": "bytes32",
          "name": "resHash",
          "type": "bytes32"
        }
      ],
      "stateMutability": "nonpayable",
      "type": "function"
    },
    {
      "inputs": [
        {
          "internalType": "address",
          "name": "from",
          "type": "address"
        },
        {
          "internalType": "address",
          "name": "toAddress",
          "type": "address"
        },
        {
          "internalType": "address",
          "name": "tokenAddress",
          "type": "address"
        },
        {
          "internalType": "uint256",
          "name": "tokenAmount",
          "type": "uint256"
        },
        {
          "internalType": "uint256",
          "name": "periodSeconds",
          "type": "uint256"
        },
        {
          "internalType": "uint256",
          "name": "nonce",
          "type": "uint256"
        },
        {
          "internalType": "bool",
          "name": "confirm",
          "type": "bool"
        }
      ],
      "name": "getSubscriptionCancelHash",
      "outputs": [
        {
          "internalType": "bytes32",
          "name": "",
          "type": "bytes32"
        }
      ],
      "stateMutability": "view",
      "type": "function"
    },
    {
      "inputs": [
        {
          "internalType": "address",
          "name": "from",
          "type": "address"
        },
        {
          "internalType": "address",
          "name": "toAddress",
          "type": "address"
        },
        {
          "internalType": "address",
          "name": "tokenAddress",
          "type": "address"
        },
        {
          "internalType": "uint256",
          "name": "tokenAmount",
          "type": "uint256"
        },
        {
          "internalType": "uint256",
          "name": "periodSeconds",
          "type": "uint256"
        },
        {
          "internalType": "uint256",
          "name": "nonce",
          "type": "uint256"
        }
      ],
      "name": "getSubscriptionHash",
      "outputs": [
        {
          "internalType": "bytes32",
          "name": "",
          "type": "bytes32"
        }
      ],
      "stateMutability": "view",
      "type": "function"
    },
    {
      "inputs": [
        {
          "internalType": "bytes32",
          "name": "subscriptionHash",
          "type": "bytes32"
        },
        {
          "internalType": "bytes",
          "name": "signature",
          "type": "bytes"
        }
      ],
      "name": "getSubscriptionSigner",
      "outputs": [
        {
          "internalType": "address",
          "name": "",
          "type": "address"
        }
      ],
      "stateMutability": "pure",
      "type": "function"
    },
    {
      "inputs": [],
      "name": "gracePeriodSeconds",
      "outputs": [
        {
          "internalType": "uint256",
          "name": "",
          "type": "uint256"
        }
      ],
      "stateMutability": "view",
      "type": "function"
    },
    {
      "inputs": [],
      "name": "initialize",
      "outputs": [],
      "stateMutability": "nonpayable",
      "type": "function"
    },
    {
      "inputs": [
        {
          "internalType": "bytes32",
          "name": "subscriptionHash",
          "type": "bytes32"
        }
      ],
      "name": "isSubscriptionActive",
      "outputs": [
        {
          "internalType": "bool",
          "name": "",
          "type": "bool"
        }
      ],
      "stateMutability": "view",
      "type": "function"
    },
    {
      "inputs": [
        {
          "internalType": "bytes32",
          "name": "",
          "type": "bytes32"
        }
      ],
      "name": "nextValidTimestamp",
      "outputs": [
        {
          "internalType": "uint256",
          "name": "",
          "type": "uint256"
        }
      ],
      "stateMutability": "view",
      "type": "function"
    },
    {
      "inputs": [],
      "name": "owner",
      "outputs": [
        {
          "internalType": "address",
          "name": "",
          "type": "address"
        }
      ],
      "stateMutability": "view",
      "type": "function"
    },
    {
      "inputs": [
        {
          "internalType": "address",
          "name": "tokenAddress",
          "type": "address"
        },
        {
          "internalType": "address",
          "name": "owner",
          "type": "address"
        },
        {
          "internalType": "uint256",
          "name": "value",
          "type": "uint256"
        },
        {
          "internalType": "uint256",
          "name": "deadline",
          "type": "uint256"
        },
        {
          "internalType": "uint8",
          "name": "v",
          "type": "uint8"
        },
        {
          "internalType": "bytes32",
          "name": "r",
          "type": "bytes32"
        },
        {
          "internalType": "bytes32",
          "name": "s",
          "type": "bytes32"
        }
      ],
      "name": "permit",
      "outputs": [],
      "stateMutability": "nonpayable",
      "type": "function"
    },
    {
      "inputs": [
        {
          "internalType": "address",
          "name": "from",
          "type": "address"
        },
        {
          "internalType": "address",
          "name": "toAddress",
          "type": "address"
        },
        {
          "internalType": "address",
          "name": "tokenAddress",
          "type": "address"
        },
        {
          "internalType": "uint256",
          "name": "tokenAmount",
          "type": "uint256"
        },
        {
          "internalType": "uint256",
          "name": "periodSeconds",
          "type": "uint256"
        },
        {
          "internalType": "uint256",
          "name": "nonce",
          "type": "uint256"
        },
        {
          "internalType": "bytes",
          "name": "signature",
          "type": "bytes"
        },
        {
          "internalType": "uint256",
          "name": "value",
          "type": "uint256"
        },
        {
          "internalType": "uint256",
          "name": "deadline",
          "type": "uint256"
        },
        {
          "internalType": "uint8",
          "name": "v",
          "type": "uint8"
        },
        {
          "internalType": "bytes32",
          "name": "r",
          "type": "bytes32"
        },
        {
          "internalType": "bytes32",
          "name": "s",
          "type": "bytes32"
        }
      ],
      "name": "permitSubscription",
      "outputs": [
        {
          "internalType": "bytes32",
          "name": "resHash",
          "type": "bytes32"
        }
      ],
      "stateMutability": "nonpayable",
      "type": "function"
    },
    {
      "inputs": [],
      "name": "renounceOwnership",
      "outputs": [],
      "stateMutability": "nonpayable",
      "type": "function"
    },
    {
      "inputs": [
        {
          "internalType": "address",
          "name": "newOwner",
          "type": "address"
        }
      ],
      "name": "transferOwnership",
      "outputs": [],
      "stateMutability": "nonpayable",
      "type": "function"
    },
    {
      "inputs": [
        {
          "internalType": "address",
          "name": "tokenAddress",
          "type": "address"
        }
      ],
      "name": "transferRemainingBalance",
      "outputs": [
        {
          "internalType": "bool",
          "name": "success",
          "type": "bool"
        }
      ],
      "stateMutability": "nonpayable",
      "type": "function"
    }
  ],
  "bytecode": "0x608060405234801561001057600080fd5b50611bc9806100206000396000f3fe608060405234801561001057600080fd5b50600436106100e05760003560e01c806391351c821161008757806391351c821461019f5780639befb13b146101b2578063b01b3e28146101bb578063b57b0c7f146101ce578063d505accf146101e1578063db8c31ff146101f4578063f2fde38b14610207578063ff59bff81461021a57600080fd5b80630f331198146100e557806318f321a31461010b5780633ceb752c1461012b578063691d93521461014e578063715018a6146101615780638129fc1c1461016b57806384b0196e146101735780638da5cb5b1461018e575b600080fd5b6100f86100f3366004611588565b61023a565b6040519081526020015b60405180910390f35b61011e6101193660046116a6565b6102d7565b60405161010291906116ed565b61013e610139366004611701565b6102ea565b6040519015158152602001610102565b6100f861015c36600461171e565b610481565b61016961098a565b005b61016961099e565b61017b610afc565b60405161010297969594939291906117fd565b6067546001600160a01b031661011e565b61013e6101ad366004611893565b610b9a565b6100f8609a5481565b6100f86101c93660046118ac565b610bdf565b6100f86101dc36600461171e565b610c5b565b6101696101ef366004611922565b610d95565b6100f8610202366004611990565b610e28565b610169610215366004611701565b610e59565b6100f8610228366004611893565b60996020526000908152604090205481565b604080517fa950dd50a64a7b15267270110364d19724e57deaa3dff6bd557b54ccf9c5c62e60208201526001600160a01b03808a16928201929092528188166060820152908616608082015260a0810185905260c0810184905260e081018390528115156101008201526000906102cb90610120015b60405160208183030381529060405280519060200120610ecf565b98975050505050505050565b60006102e38383610f02565b9392505050565b60006102f4610f26565b6040516370a0823160e01b81526000906001600160a01b038416906370a08231906103239030906004016116ed565b60206040518083038186803b15801561033b57600080fd5b505afa15801561034f573d6000803e3d6000fd5b505050506040513d601f19601f820116820180604052508101906103739190611a58565b9050826001600160a01b031663a9059cbb306001600160a01b0316638da5cb5b6040518163ffffffff1660e01b815260040160206040518083038186803b1580156103bd57600080fd5b505afa1580156103d1573d6000803e3d6000fd5b505050506040513d601f19601f820116820180604052508101906103f59190611a71565b6040516001600160e01b031960e084901b1681526001600160a01b03909116600482015260248101849052604401602060405180830381600087803b15801561043d57600080fd5b505af1158015610451573d6000803e3d6000fd5b505050506040513d601f19601f820116820180604052508101906104759190611a8e565b5060019150505b919050565b600080610492898989898989610bdf565b905060006104a082856102d7565b9050896001600160a01b0316816001600160a01b03161461051d5760405162461bcd60e51b815260206004820152602c60248201527f496e76616c6964205369676e617475726520666f72207375627363726970746960448201526b37b71032bc32b1baba34b7b760a11b60648201526084015b60405180910390fd5b886001600160a01b03168a6001600160a01b0316141561058f5760405162461bcd60e51b815260206004820152602760248201527f66726f6d2061646472657373206973207468652064657374696e6174696f6e206044820152666164647265737360c81b6064820152608401610514565b61059882610b9a565b6105f55760405162461bcd60e51b815260206004820152602860248201527f537562736372697074696f6e206e6f7420726561647920666f722065786563756044820152671d1a5bdb881e595d60c21b6064820152608401610514565b604051636eb1769f60e11b81526001600160a01b038b81166004830152306024830152600091908a169063dd62ed3e9060440160206040518083038186803b15801561064057600080fd5b505afa158015610654573d6000803e3d6000fd5b505050506040513d601f19601f820116820180604052508101906106789190611a58565b9050878110156106e15760405162461bcd60e51b815260206004820152602e60248201527f496e73756666696369656e7420616c6c6f77616e636520746f2065786563757460448201526d329039bab139b1b934b83a34b7b760911b6064820152608401610514565b6040516370a0823160e01b81526000906001600160a01b038b16906370a0823190610710908f906004016116ed565b60206040518083038186803b15801561072857600080fd5b505afa15801561073c573d6000803e3d6000fd5b505050506040513d601f19601f820116820180604052508101906107609190611a58565b9050888110156107c75760405162461bcd60e51b815260206004820152602c60248201527f496e73756666696369656e742062616c616e636520746f20657865637574652060448201526b39bab139b1b934b83a34b7b760a11b6064820152608401610514565b6040516323b872dd60e01b81526001600160a01b038d81166004830152306024830152604482018b90528b16906323b872dd90606401602060405180830381600087803b15801561081757600080fd5b505af115801561082b573d6000803e3d6000fd5b505050506040513d601f19601f8201168201806040525081019061084f9190611a8e565b5060405163a9059cbb60e01b81526001600160a01b038c81166004830152602482018b90528a91908c169063a9059cbb90604401602060405180830381600087803b15801561089d57600080fd5b505af11580156108b1573d6000803e3d6000fd5b505050506040513d601f19601f820116820180604052508101906108d59190611a8e565b506000858152609960205260409020546108f8576108f3428a610f80565b610911565b600085815260996020526040902054610911908a610f80565b60996000878152602001908152602001600020819055508b6001600160a01b03168d6001600160a01b03167fc51b043bf6e44ae9d9e0df67b8ad10c8b5d93be940b9475f4af44e866b2f08f68d8d8d8d6040516109719493929190611aab565b60405180910390a350929b9a5050505050505050505050565b610992610f26565b61099c6000610f8c565b565b600054610100900460ff16158080156109be5750600054600160ff909116105b806109d85750303b1580156109d8575060005460ff166001145b610a3b5760405162461bcd60e51b815260206004820152602e60248201527f496e697469616c697a61626c653a20636f6e747261637420697320616c72656160448201526d191e481a5b9a5d1a585b1a5e995960921b6064820152608401610514565b6000805460ff191660011790558015610a5e576000805461ff0019166101001790555b610aa56040518060400160405280600c81526020016b29bab139b1b934b83a34b7b760a11b815250604051806040016040528060018152602001603160f81b815250610fde565b610aad611013565b61012c609a558015610af9576000805461ff0019169055604051600181527f7f26b83ff96e1f2b6a682f133852f6798a09c465da95921460cefb38474024989060200160405180910390a15b50565b6000606080600080600060606001546000801b148015610b1c5750600254155b610b605760405162461bcd60e51b81526020600482015260156024820152741152540dcc4c8e88155b9a5b9a5d1a585b1a5e9959605a1b6044820152606401610514565b610b68611042565b610b706110d4565b60408051600080825260208201909252600f60f81b9b939a50919850469750309650945092509050565b6000818152609960205260408120546000191415610bba57506000919050565b600082815260996020526040902054609a54610bd7904290610f80565b101592915050565b604080517f8a1d297a9c968d2bbe9c792ca26407cd7bc106b7bc2e949a90f47a6e3cda443760208201526001600160a01b03808916928201929092528187166060820152908516608082015260a0810184905260c0810183905260e08101829052600090610c5090610100016102b0565b979650505050505050565b600080610c6c898989898989610bdf565b90506000610c808a8a8a8a8a8a600161023a565b90506000610c8e82866102d7565b90508a6001600160a01b0316816001600160a01b03161480610cc15750896001600160a01b0316816001600160a01b0316145b610d255760405162461bcd60e51b815260206004820152602f60248201527f496e76616c6964205369676e617475726520666f72207375627363726970746960448201526e37b71031b0b731b2b63630ba34b7b760891b6064820152608401610514565b600083815260996020526040908190206000199055516001600160a01b03808c1691908d16907f0da243ce4f950bc8a719870403077aae05c210da55b41bf9a321b40753b404c690610d7e908d908d908d908d90611aab565b60405180910390a350909998505050505050505050565b60405163d505accf60e01b81526001600160a01b038781166004830152306024830152604482018790526064820186905260ff8516608483015260a4820184905260c4820183905288919082169063d505accf9060e401600060405180830381600087803b158015610e0657600080fd5b505af1158015610e1a573d6000803e3d6000fd5b505050505050505050505050565b6000610e398b8e8888888888610d95565b610e488d8d8d8d8d8d8d610481565b9d9c50505050505050505050505050565b610e61610f26565b6001600160a01b038116610ec65760405162461bcd60e51b815260206004820152602660248201527f4f776e61626c653a206e6577206f776e657220697320746865207a65726f206160448201526564647265737360d01b6064820152608401610514565b610af981610f8c565b6000610efc610edc6110e3565b8360405161190160f01b8152600281019290925260228201526042902090565b92915050565b6000806000610f1185856110f2565b91509150610f1e81611138565b509392505050565b6067546001600160a01b0316331461099c5760405162461bcd60e51b815260206004820181905260248201527f4f776e61626c653a2063616c6c6572206973206e6f7420746865206f776e65726044820152606401610514565b60006102e38284611ad1565b606780546001600160a01b038381166001600160a01b0319831681179093556040519116919082907f8be0079c531659141344cd1fd0a4f28419497f9722a3daafe3b4186f6b6457e090600090a35050565b600054610100900460ff166110055760405162461bcd60e51b815260040161051490611af7565b61100f8282611281565b5050565b600054610100900460ff1661103a5760405162461bcd60e51b815260040161051490611af7565b61099c6112de565b60606003805461105190611b42565b80601f016020809104026020016040519081016040528092919081815260200182805461107d90611b42565b80156110ca5780601f1061109f576101008083540402835291602001916110ca565b820191906000526020600020905b8154815290600101906020018083116110ad57829003601f168201915b5050505050905090565b60606004805461105190611b42565b60006110ed61130e565b905090565b6000808251604114156111295760208301516040840151606085015160001a61111d87828585611382565b94509450505050611131565b506000905060025b9250929050565b600081600481111561114c5761114c611b7d565b14156111555750565b600181600481111561116957611169611b7d565b14156111b25760405162461bcd60e51b815260206004820152601860248201527745434453413a20696e76616c6964207369676e617475726560401b6044820152606401610514565b60028160048111156111c6576111c6611b7d565b14156112145760405162461bcd60e51b815260206004820152601f60248201527f45434453413a20696e76616c6964207369676e6174757265206c656e677468006044820152606401610514565b600381600481111561122857611228611b7d565b1415610af95760405162461bcd60e51b815260206004820152602260248201527f45434453413a20696e76616c6964207369676e6174757265202773272076616c604482015261756560f01b6064820152608401610514565b600054610100900460ff166112a85760405162461bcd60e51b815260040161051490611af7565b81516112bb9060039060208501906114ca565b5080516112cf9060049060208401906114ca565b50506000600181905560025550565b600054610100900460ff166113055760405162461bcd60e51b815260040161051490611af7565b61099c33610f8c565b60007f8b73c3c69bb8fe3d512ecc4cf759cc79239f7b179b0ffacaa9a75d522b39400f61133961143c565b611341611499565b60408051602081019490945283019190915260608201524660808201523060a082015260c00160405160208183030381529060405280519060200120905090565b6000806fa2a8918ca85bafe22016d0b997e4df60600160ff1b038311156113af5750600090506003611433565b6040805160008082526020820180845289905260ff881692820192909252606081018690526080810185905260019060a0016020604051602081039080840390855afa158015611403573d6000803e3d6000fd5b5050604051601f1901519150506001600160a01b03811661142c57600060019250925050611433565b9150600090505b94509492505050565b600080611447611042565b80519091501561145e578051602090910120919050565b600154801561146d5792915050565b7fc5d2460186f7233c927e7db2dcc703c0e500b653ca82273b7bfad8045d85a4709250505090565b5090565b6000806114a46110d4565b8051909150156114bb578051602090910120919050565b600254801561146d5792915050565b8280546114d690611b42565b90600052602060002090601f0160209004810192826114f8576000855561153e565b82601f1061151157805160ff191683800117855561153e565b8280016001018555821561153e579182015b8281111561153e578251825591602001919060010190611523565b506114959291505b808211156114955760008155600101611546565b6001600160a01b0381168114610af957600080fd5b803561047c8161155a565b8015158114610af957600080fd5b600080600080600080600060e0888a0312156115a357600080fd5b87356115ae8161155a565b965060208801356115be8161155a565b955060408801356115ce8161155a565b9450606088013593506080880135925060a0880135915060c08801356115f38161157a565b8091505092959891949750929550565b634e487b7160e01b600052604160045260246000fd5b600082601f83011261162a57600080fd5b813567ffffffffffffffff8082111561164557611645611603565b604051601f8301601f19908116603f0116810190828211818310171561166d5761166d611603565b8160405283815286602085880101111561168657600080fd5b836020870160208301376000602085830101528094505050505092915050565b600080604083850312156116b957600080fd5b82359150602083013567ffffffffffffffff8111156116d757600080fd5b6116e385828601611619565b9150509250929050565b6001600160a01b0391909116815260200190565b60006020828403121561171357600080fd5b81356102e38161155a565b600080600080600080600060e0888a03121561173957600080fd5b87356117448161155a565b965060208801356117548161155a565b955060408801356117648161155a565b9450606088013593506080880135925060a0880135915060c088013567ffffffffffffffff81111561179557600080fd5b6117a18a828b01611619565b91505092959891949750929550565b6000815180845260005b818110156117d6576020818501810151868301820152016117ba565b818111156117e8576000602083870101525b50601f01601f19169290920160200192915050565b60ff60f81b881681526000602060e08184015261181d60e084018a6117b0565b838103604085015261182f818a6117b0565b606085018990526001600160a01b038816608086015260a0850187905284810360c0860152855180825283870192509083019060005b8181101561188157835183529284019291840191600101611865565b50909c9b505050505050505050505050565b6000602082840312156118a557600080fd5b5035919050565b60008060008060008060c087890312156118c557600080fd5b86356118d08161155a565b955060208701356118e08161155a565b945060408701356118f08161155a565b959894975094956060810135955060808101359460a0909101359350915050565b803560ff8116811461047c57600080fd5b600080600080600080600060e0888a03121561193d57600080fd5b87356119488161155a565b965060208801356119588161155a565b9550604088013594506060880135935061197460808901611911565b925060a0880135915060c0880135905092959891949750929550565b6000806000806000806000806000806000806101808d8f0312156119b357600080fd5b6119bc8d61156f565b9b506119ca60208e0161156f565b9a506119d860408e0161156f565b995060608d0135985060808d0135975060a08d0135965067ffffffffffffffff60c08e01351115611a0857600080fd5b611a188e60c08f01358f01611619565b955060e08d013594506101008d01359350611a366101208e01611911565b92506101408d013591506101608d013590509295989b509295989b509295989b565b600060208284031215611a6a57600080fd5b5051919050565b600060208284031215611a8357600080fd5b81516102e38161155a565b600060208284031215611aa057600080fd5b81516102e38161157a565b6001600160a01b0394909416845260208401929092526040830152606082015260800190565b60008219821115611af257634e487b7160e01b600052601160045260246000fd5b500190565b6020808252602b908201527f496e697469616c697a61626c653a20636f6e7472616374206973206e6f74206960408201526a6e697469616c697a696e6760a81b606082015260800190565b600181811c90821680611b5657607f821691505b60208210811415611b7757634e487b7160e01b600052602260045260246000fd5b50919050565b634e487b7160e01b600052602160045260246000fdfea264697066735822122087bb3a9284e66c7a6ac1e38e9465ed02d48c94fa160be341547b4c73dc1ca93164736f6c63430008080033",
  "linkReferences": {},
  "deployedLinkReferences": {}
}