{
  "_format": "hh-sol-artifact-1",
  "contractName": "Token",
  "sourceName": "contracts/Token.sol",
  "abi": [
    {
      "anonymous": false,
      "inputs": [
        {
          "indexed": true,
          "internalType": "address",
          "name": "owner",
          "type": "address"
        },
        {
          "indexed": true,
          "internalType": "address",
          "name": "spender",
          "type": "address"
        },
        {
          "indexed": false,
          "internalType": "uint256",
          "name": "value",
          "type": "uint256"
        }
      ],
      "name": "Approval",
      "type": "event"
    },
    {
      "anonymous": false,
      "inputs": [],
      "name": "EIP712DomainChanged",
      "type": "event"
    },
    {
      "anonymous": false,
      "inputs": [
        {
          "indexed": false,
          "internalType": "uint8",
          "name": "version",
          "type": "uint8"
        }
      ],
      "name": "Initialized",
      "type": "event"
    },
    {
      "anonymous": false,
      "inputs": [
        {
          "indexed": true,
          "internalType": "address",
          "name": "previousOwner",
          "type": "address"
        },
        {
          "indexed": true,
          "internalType": "address",
          "name": "newOwner",
          "type": "address"
        }
      ],
      "name": "OwnershipTransferred",
      "type": "event"
    },
    {
      "anonymous": false,
      "inputs": [
        {
          "indexed": true,
          "internalType": "address",
          "name": "from",
          "type": "address"
        },
        {
          "indexed": true,
          "internalType": "address",
          "name": "to",
          "type": "address"
        },
        {
          "indexed": false,
          "internalType": "uint256",
          "name": "value",
          "type": "uint256"
        }
      ],
      "name": "Transfer",
      "type": "event"
    },
    {
      "inputs": [],
      "name": "DOMAIN_SEPARATOR",
      "outputs": [
        {
          "internalType": "bytes32",
          "name": "",
          "type": "bytes32"
        }
      ],
      "stateMutability": "view",
      "type": "function"
    },
    {
      "inputs": [
        {
          "internalType": "address",
          "name": "owner",
          "type": "address"
        },
        {
          "internalType": "address",
          "name": "spender",
          "type": "address"
        }
      ],
      "name": "allowance",
      "outputs": [
        {
          "internalType": "uint256",
          "name": "",
          "type": "uint256"
        }
      ],
      "stateMutability": "view",
      "type": "function"
    },
    {
      "inputs": [
        {
          "internalType": "address",
          "name": "spender",
          "type": "address"
        },
        {
          "internalType": "uint256",
          "name": "amount",
          "type": "uint256"
        }
      ],
      "name": "approve",
      "outputs": [
        {
          "internalType": "bool",
          "name": "",
          "type": "bool"
        }
      ],
      "stateMutability": "nonpayable",
      "type": "function"
    },
    {
      "inputs": [
        {
          "internalType": "address",
          "name": "account",
          "type": "address"
        }
      ],
      "name": "balanceOf",
      "outputs": [
        {
          "internalType": "uint256",
          "name": "",
          "type": "uint256"
        }
      ],
      "stateMutability": "view",
      "type": "function"
    },
    {
      "inputs": [],
      "name": "decimals",
      "outputs": [
        {
          "internalType": "uint8",
          "name": "",
          "type": "uint8"
        }
      ],
      "stateMutability": "view",
      "type": "function"
    },
    {
      "inputs": [
        {
          "internalType": "address",
          "name": "spender",
          "type": "address"
        },
        {
          "internalType": "uint256",
          "name": "subtractedValue",
          "type": "uint256"
        }
      ],
      "name": "decreaseAllowance",
      "outputs": [
        {
          "internalType": "bool",
          "name": "",
          "type": "bool"
        }
      ],
      "stateMutability": "nonpayable",
      "type": "function"
    },
    {
      "inputs": [],
      "name": "eip712Domain",
      "outputs": [
        {
          "internalType": "bytes1",
          "name": "fields",
          "type": "bytes1"
        },
        {
          "internalType": "string",
          "name": "name",
          "type": "string"
        },
        {
          "internalType": "string",
          "name": "version",
          "type": "string"
        },
        {
          "internalType": "uint256",
          "name": "chainId",
          "type": "uint256"
        },
        {
          "internalType": "address",
          "name": "verifyingContract",
          "type": "address"
        },
        {
          "internalType": "bytes32",
          "name": "salt",
          "type": "bytes32"
        },
        {
          "internalType": "uint256[]",
          "name": "extensions",
          "type": "uint256[]"
        }
      ],
      "stateMutability": "view",
      "type": "function"
    },
    {
      "inputs": [
        {
          "internalType": "address",
          "name": "addr",
          "type": "address"
        }
      ],
      "name": "faucet",
      "outputs": [],
      "stateMutability": "nonpayable",
      "type": "function"
    },
    {
      "inputs": [
        {
          "internalType": "address",
          "name": "spender",
          "type": "address"
        },
        {
          "internalType": "uint256",
          "name": "addedValue",
          "type": "uint256"
        }
      ],
      "name": "increaseAllowance",
      "outputs": [
        {
          "internalType": "bool",
          "name": "",
          "type": "bool"
        }
      ],
      "stateMutability": "nonpayable",
      "type": "function"
    },
    {
      "inputs": [],
      "name": "initialize",
      "outputs": [],
      "stateMutability": "nonpayable",
      "type": "function"
    },
    {
      "inputs": [],
      "name": "name",
      "outputs": [
        {
          "internalType": "string",
          "name": "",
          "type": "string"
        }
      ],
      "stateMutability": "view",
      "type": "function"
    },
    {
      "inputs": [
        {
          "internalType": "address",
          "name": "owner",
          "type": "address"
        }
      ],
      "name": "nonces",
      "outputs": [
        {
          "internalType": "uint256",
          "name": "",
          "type": "uint256"
        }
      ],
      "stateMutability": "view",
      "type": "function"
    },
    {
      "inputs": [],
      "name": "owner",
      "outputs": [
        {
          "internalType": "address",
          "name": "",
          "type": "address"
        }
      ],
      "stateMutability": "view",
      "type": "function"
    },
    {
      "inputs": [
        {
          "internalType": "address",
          "name": "owner",
          "type": "address"
        },
        {
          "internalType": "address",
          "name": "spender",
          "type": "address"
        },
        {
          "internalType": "uint256",
          "name": "value",
          "type": "uint256"
        },
        {
          "internalType": "uint256",
          "name": "deadline",
          "type": "uint256"
        },
        {
          "internalType": "uint8",
          "name": "v",
          "type": "uint8"
        },
        {
          "internalType": "bytes32",
          "name": "r",
          "type": "bytes32"
        },
        {
          "internalType": "bytes32",
          "name": "s",
          "type": "bytes32"
        }
      ],
      "name": "permit",
      "outputs": [],
      "stateMutability": "nonpayable",
      "type": "function"
    },
    {
      "inputs": [],
      "name": "renounceOwnership",
      "outputs": [],
      "stateMutability": "nonpayable",
      "type": "function"
    },
    {
      "inputs": [],
      "name": "symbol",
      "outputs": [
        {
          "internalType": "string",
          "name": "",
          "type": "string"
        }
      ],
      "stateMutability": "view",
      "type": "function"
    },
    {
      "inputs": [],
      "name": "totalSupply",
      "outputs": [
        {
          "internalType": "uint256",
          "name": "",
          "type": "uint256"
        }
      ],
      "stateMutability": "view",
      "type": "function"
    },
    {
      "inputs": [
        {
          "internalType": "address",
          "name": "to",
          "type": "address"
        },
        {
          "internalType": "uint256",
          "name": "amount",
          "type": "uint256"
        }
      ],
      "name": "transfer",
      "outputs": [
        {
          "internalType": "bool",
          "name": "",
          "type": "bool"
        }
      ],
      "stateMutability": "nonpayable",
      "type": "function"
    },
    {
      "inputs": [
        {
          "internalType": "address",
          "name": "from",
          "type": "address"
        },
        {
          "internalType": "address",
          "name": "to",
          "type": "address"
        },
        {
          "internalType": "uint256",
          "name": "amount",
          "type": "uint256"
        }
      ],
      "name": "transferFrom",
      "outputs": [
        {
          "internalType": "bool",
          "name": "",
          "type": "bool"
        }
      ],
      "stateMutability": "nonpayable",
      "type": "function"
    },
    {
      "inputs": [
        {
          "internalType": "address",
          "name": "newOwner",
          "type": "address"
        }
      ],
      "name": "transferOwnership",
      "outputs": [],
      "stateMutability": "nonpayable",
      "type": "function"
    }
  ],
  "bytecode": "0x608060405234801561001057600080fd5b5061160e806100206000396000f3fe608060405234801561001057600080fd5b506004361061012c5760003560e01c80638129fc1c116100ad578063a9059cbb11610071578063a9059cbb14610260578063b86d1d6314610273578063d505accf14610286578063dd62ed3e14610299578063f2fde38b146102ac57600080fd5b80638129fc1c1461020757806384b0196e1461020f5780638da5cb5b1461022a57806395d89b4114610245578063a457c2d71461024d57600080fd5b80633644e515116100f45780633644e515146101a657806339509351146101ae57806370a08231146101c1578063715018a6146101ea5780637ecebe00146101f457600080fd5b806306fdde0314610131578063095ea7b31461014f57806318160ddd1461017257806323b872dd14610184578063313ce56714610197575b600080fd5b6101396102bf565b6040516101469190611329565b60405180910390f35b61016261015d36600461135f565b610351565b6040519015158152602001610146565b6035545b604051908152602001610146565b610162610192366004611389565b610369565b60405160128152602001610146565b61017661038d565b6101626101bc36600461135f565b61039c565b6101766101cf3660046113c5565b6001600160a01b031660009081526033602052604090205490565b6101f26103be565b005b6101766102023660046113c5565b6103d2565b6101f26103f2565b61021761056f565b60405161014697969594939291906113e0565b60cc546040516001600160a01b039091168152602001610146565b61013961060d565b61016261025b36600461135f565b61061c565b61016261026e36600461135f565b610697565b6101f26102813660046113c5565b6106a5565b6101f2610294366004611476565b6106b8565b6101766102a73660046114e9565b61081c565b6101f26102ba3660046113c5565b610847565b6060603680546102ce9061151c565b80601f01602080910402602001604051908101604052809291908181526020018280546102fa9061151c565b80156103475780601f1061031c57610100808354040283529160200191610347565b820191906000526020600020905b81548152906001019060200180831161032a57829003601f168201915b5050505050905090565b60003361035f8185856108bd565b5060019392505050565b6000336103778582856109e1565b610382858585610a5b565b506001949350505050565b6000610397610c06565b905090565b60003361035f8185856103af838361081c565b6103b99190611551565b6108bd565b6103c6610c10565b6103d06000610c6a565b565b6001600160a01b0381166000908152609960205260408120545b92915050565b600054610100900460ff16158080156104125750600054600160ff909116105b8061042c5750303b15801561042c575060005460ff166001145b6104945760405162461bcd60e51b815260206004820152602e60248201527f496e697469616c697a61626c653a20636f6e747261637420697320616c72656160448201526d191e481a5b9a5d1a585b1a5e995960921b60648201526084015b60405180910390fd5b6000805460ff1916600117905580156104b7576000805461ff0019166101001790555b6104fd6040518060400160405280600881526020016715195cdd081554d160c21b81525060405180604001604052806004815260200163151554d160e21b815250610cbc565b6105266040518060400160405280600881526020016715195cdd081554d160c21b815250610cf1565b801561056c576000805461ff0019169055604051600181527f7f26b83ff96e1f2b6a682f133852f6798a09c465da95921460cefb38474024989060200160405180910390a15b50565b6000606080600080600060606065546000801b14801561058f5750606654155b6105d35760405162461bcd60e51b81526020600482015260156024820152741152540dcc4c8e88155b9a5b9a5d1a585b1a5e9959605a1b604482015260640161048b565b6105db610d3b565b6105e3610d4a565b60408051600080825260208201909252600f60f81b9b939a50919850469750309650945092509050565b6060603780546102ce9061151c565b6000338161062a828661081c565b90508381101561068a5760405162461bcd60e51b815260206004820152602560248201527f45524332303a2064656372656173656420616c6c6f77616e63652062656c6f77604482015264207a65726f60d81b606482015260840161048b565b61038282868684036108bd565b60003361035f818585610a5b565b61056c8168056bc75e2d63100000610d59565b834211156107085760405162461bcd60e51b815260206004820152601d60248201527f45524332305065726d69743a206578706972656420646561646c696e65000000604482015260640161048b565b60007f6e71edae12b1b97f4d1f60370fef10105fa2faae0126114a169c64845d6126c98888886107378c610e1a565b6040805160208101969096526001600160a01b0394851690860152929091166060840152608083015260a082015260c0810186905260e001604051602081830303815290604052805190602001209050600061079282610e42565b905060006107a282878787610e6f565b9050896001600160a01b0316816001600160a01b0316146108055760405162461bcd60e51b815260206004820152601e60248201527f45524332305065726d69743a20696e76616c6964207369676e61747572650000604482015260640161048b565b6108108a8a8a6108bd565b50505050505050505050565b6001600160a01b03918216600090815260346020908152604080832093909416825291909152205490565b61084f610c10565b6001600160a01b0381166108b45760405162461bcd60e51b815260206004820152602660248201527f4f776e61626c653a206e6577206f776e657220697320746865207a65726f206160448201526564647265737360d01b606482015260840161048b565b61056c81610c6a565b6001600160a01b03831661091f5760405162461bcd60e51b8152602060048201526024808201527f45524332303a20617070726f76652066726f6d20746865207a65726f206164646044820152637265737360e01b606482015260840161048b565b6001600160a01b0382166109805760405162461bcd60e51b815260206004820152602260248201527f45524332303a20617070726f766520746f20746865207a65726f206164647265604482015261737360f01b606482015260840161048b565b6001600160a01b0383811660008181526034602090815260408083209487168084529482529182902085905590518481527f8c5be1e5ebec7d5bd14f71427d1e84f3dd0314c0f7b2291e5b200ac8c7c3b925910160405180910390a3505050565b60006109ed848461081c565b90506000198114610a555781811015610a485760405162461bcd60e51b815260206004820152601d60248201527f45524332303a20696e73756666696369656e7420616c6c6f77616e6365000000604482015260640161048b565b610a5584848484036108bd565b50505050565b6001600160a01b038316610abf5760405162461bcd60e51b815260206004820152602560248201527f45524332303a207472616e736665722066726f6d20746865207a65726f206164604482015264647265737360d81b606482015260840161048b565b6001600160a01b038216610b215760405162461bcd60e51b815260206004820152602360248201527f45524332303a207472616e7366657220746f20746865207a65726f206164647260448201526265737360e81b606482015260840161048b565b6001600160a01b03831660009081526033602052604090205481811015610b995760405162461bcd60e51b815260206004820152602660248201527f45524332303a207472616e7366657220616d6f756e7420657863656564732062604482015265616c616e636560d01b606482015260840161048b565b6001600160a01b0380851660008181526033602052604080822086860390559286168082529083902080548601905591517fddf252ad1be2c89b69c2b068fc378daa952ba7f163c4a11628f55a4df523b3ef90610bf99086815260200190565b60405180910390a3610a55565b6000610397610e9c565b60cc546001600160a01b031633146103d05760405162461bcd60e51b815260206004820181905260248201527f4f776e61626c653a2063616c6c6572206973206e6f7420746865206f776e6572604482015260640161048b565b60cc80546001600160a01b038381166001600160a01b0319831681179093556040519116919082907f8be0079c531659141344cd1fd0a4f28419497f9722a3daafe3b4186f6b6457e090600090a35050565b600054610100900460ff16610ce35760405162461bcd60e51b815260040161048b90611577565b610ced8282610f10565b5050565b600054610100900460ff16610d185760405162461bcd60e51b815260040161048b90611577565b61056c81604051806040016040528060018152602001603160f81b815250610f5e565b6060606780546102ce9061151c565b6060606880546102ce9061151c565b6001600160a01b038216610daf5760405162461bcd60e51b815260206004820152601f60248201527f45524332303a206d696e7420746f20746865207a65726f206164647265737300604482015260640161048b565b8060356000828254610dc19190611551565b90915550506001600160a01b0382166000818152603360209081526040808320805486019055518481527fddf252ad1be2c89b69c2b068fc378daa952ba7f163c4a11628f55a4df523b3ef910160405180910390a35050565b6001600160a01b03811660009081526099602052604090208054600181018255905b50919050565b60006103ec610e4f610c06565b8360405161190160f01b8152600281019290925260228201526042902090565b6000806000610e8087878787610fbb565b91509150610e8d81611075565b5095945050505050565b505050565b60007f8b73c3c69bb8fe3d512ecc4cf759cc79239f7b179b0ffacaa9a75d522b39400f610ec76111be565b610ecf61121b565b60408051602081019490945283019190915260608201524660808201523060a082015260c00160405160208183030381529060405280519060200120905090565b600054610100900460ff16610f375760405162461bcd60e51b815260040161048b90611577565b8151610f4a90603690602085019061124c565b508051610e9790603790602084019061124c565b600054610100900460ff16610f855760405162461bcd60e51b815260040161048b90611577565b8151610f9890606790602085019061124c565b508051610fac90606890602084019061124c565b50506000606581905560665550565b6000806fa2a8918ca85bafe22016d0b997e4df60600160ff1b03831115610fe8575060009050600361106c565b6040805160008082526020820180845289905260ff881692820192909252606081018690526080810185905260019060a0016020604051602081039080840390855afa15801561103c573d6000803e3d6000fd5b5050604051601f1901519150506001600160a01b0381166110655760006001925092505061106c565b9150600090505b94509492505050565b6000816004811115611089576110896115c2565b14156110925750565b60018160048111156110a6576110a66115c2565b14156110ef5760405162461bcd60e51b815260206004820152601860248201527745434453413a20696e76616c6964207369676e617475726560401b604482015260640161048b565b6002816004811115611103576111036115c2565b14156111515760405162461bcd60e51b815260206004820152601f60248201527f45434453413a20696e76616c6964207369676e6174757265206c656e67746800604482015260640161048b565b6003816004811115611165576111656115c2565b141561056c5760405162461bcd60e51b815260206004820152602260248201527f45434453413a20696e76616c6964207369676e6174757265202773272076616c604482015261756560f01b606482015260840161048b565b6000806111c9610d3b565b8051909150156111e0578051602090910120919050565b60655480156111ef5792915050565b7fc5d2460186f7233c927e7db2dcc703c0e500b653ca82273b7bfad8045d85a4709250505090565b5090565b600080611226610d4a565b80519091501561123d578051602090910120919050565b60665480156111ef5792915050565b8280546112589061151c565b90600052602060002090601f01602090048101928261127a57600085556112c0565b82601f1061129357805160ff19168380011785556112c0565b828001600101855582156112c0579182015b828111156112c05782518255916020019190600101906112a5565b506112179291505b8082111561121757600081556001016112c8565b6000815180845260005b81811015611302576020818501810151868301820152016112e6565b81811115611314576000602083870101525b50601f01601f19169290920160200192915050565b60208152600061133c60208301846112dc565b9392505050565b80356001600160a01b038116811461135a57600080fd5b919050565b6000806040838503121561137257600080fd5b61137b83611343565b946020939093013593505050565b60008060006060848603121561139e57600080fd5b6113a784611343565b92506113b560208501611343565b9150604084013590509250925092565b6000602082840312156113d757600080fd5b61133c82611343565b60ff60f81b881681526000602060e08184015261140060e084018a6112dc565b8381036040850152611412818a6112dc565b606085018990526001600160a01b038816608086015260a0850187905284810360c0860152855180825283870192509083019060005b8181101561146457835183529284019291840191600101611448565b50909c9b505050505050505050505050565b600080600080600080600060e0888a03121561149157600080fd5b61149a88611343565b96506114a860208901611343565b95506040880135945060608801359350608088013560ff811681146114cc57600080fd5b9699959850939692959460a0840135945060c09093013592915050565b600080604083850312156114fc57600080fd5b61150583611343565b915061151360208401611343565b90509250929050565b600181811c9082168061153057607f821691505b60208210811415610e3c57634e487b7160e01b600052602260045260246000fd5b6000821982111561157257634e487b7160e01b600052601160045260246000fd5b500190565b6020808252602b908201527f496e697469616c697a61626c653a20636f6e7472616374206973206e6f74206960408201526a6e697469616c697a696e6760a81b606082015260800190565b634e487b7160e01b600052602160045260246000fdfea26469706673582212203fa3a3a4998e76878a7a6146ea08ae247f8327f9266b433c17389b725fa8413464736f6c63430008080033",
  "linkReferences": {},
  "deployedLinkReferences": {}
}